{
  "contractName": "Crowdfunding",
  "abi": [
    {
      "anonymous": false,
      "inputs": [
        {
          "indexed": false,
          "internalType": "address",
          "name": "projectAddress",
          "type": "address"
        },
        {
          "indexed": false,
          "internalType": "uint256",
          "name": "contributedAmount",
          "type": "uint256"
        },
        {
          "indexed": true,
          "internalType": "address",
          "name": "contributor",
          "type": "address"
        }
      ],
      "name": "ContributionReceived",
      "type": "event"
    },
    {
      "anonymous": false,
      "inputs": [
        {
          "indexed": false,
          "internalType": "address",
          "name": "projectContractAddress",
          "type": "address"
        },
        {
          "indexed": false,
          "internalType": "address",
          "name": "creator",
          "type": "address"
        },
        {
          "indexed": false,
          "internalType": "uint256",
          "name": "minContribution",
          "type": "uint256"
        },
        {
          "indexed": false,
          "internalType": "uint256",
          "name": "projectDeadline",
          "type": "uint256"
        },
        {
          "indexed": false,
          "internalType": "uint256",
          "name": "goalAmount",
          "type": "uint256"
        },
        {
          "indexed": false,
          "internalType": "uint256",
          "name": "currentAmount",
          "type": "uint256"
        },
        {
          "indexed": false,
          "internalType": "uint256",
          "name": "noOfContributors",
          "type": "uint256"
        },
        {
          "indexed": false,
          "internalType": "string",
          "name": "title",
          "type": "string"
        },
        {
          "indexed": false,
          "internalType": "string",
          "name": "desc",
          "type": "string"
        },
        {
          "indexed": false,
          "internalType": "uint256",
          "name": "currentState",
          "type": "uint256"
        }
      ],
      "name": "ProjectStarted",
      "type": "event"
    },
    {
      "inputs": [
        {
          "internalType": "uint256",
          "name": "minimumContribution",
          "type": "uint256"
        },
        {
          "internalType": "uint256",
          "name": "deadline",
          "type": "uint256"
        },
        {
          "internalType": "uint256",
          "name": "targetContribution",
          "type": "uint256"
        },
        {
          "internalType": "string",
          "name": "projectTitle",
          "type": "string"
        },
        {
          "internalType": "string",
          "name": "projectDesc",
          "type": "string"
        }
      ],
      "name": "createProject",
      "outputs": [],
      "stateMutability": "nonpayable",
      "type": "function"
    },
    {
      "inputs": [],
      "name": "returnAllProjects",
      "outputs": [
        {
          "internalType": "contract Project[]",
          "name": "",
          "type": "address[]"
        }
      ],
      "stateMutability": "view",
      "type": "function",
      "constant": true
    },
    {
      "inputs": [
        {
          "internalType": "address",
          "name": "_projectAddress",
          "type": "address"
        }
      ],
      "name": "contribute",
      "outputs": [],
      "stateMutability": "payable",
      "type": "function",
      "payable": true
    }
  ],
  "bytecode": "0x608060405234801561001057600080fd5b506139dc806100206000396000f3fe608060405260043610620000385760003560e01c806373e888fd146200003d57806385b6e28e146200005d578063a429078b146200008d575b600080fd5b6200005b60048036038101906200005591906200053a565b620000bb565b005b3480156200006a57600080fd5b506200007562000324565b60405162000084919062000694565b60405180910390f35b3480156200009a57600080fd5b50620000b96004803603810190620000b3919062000855565b620003b4565b005b60008173ffffffffffffffffffffffffffffffffffffffff1663937e09b16040518163ffffffff1660e01b8152600401602060405180830381865afa15801562000109573d6000803e3d6000fd5b505050506040513d601f19601f820116820180604052508101906200012f919062000932565b905060008273ffffffffffffffffffffffffffffffffffffffff1663c19d93fb6040518163ffffffff1660e01b8152600401602060405180830381865afa1580156200017f573d6000803e3d6000fd5b505050506040513d601f19601f82011682018060405250810190620001a591906200098c565b905060006002811115620001be57620001bd620009be565b5b816002811115620001d457620001d3620009be565b5b1462000217576040517f08c379a00000000000000000000000000000000000000000000000000000000081526004016200020e9062000a4e565b60405180910390fd5b813410156200025d576040517f08c379a0000000000000000000000000000000000000000000000000000000008152600401620002549062000ac0565b60405180910390fd5b8273ffffffffffffffffffffffffffffffffffffffff166373e888fd34336040518363ffffffff1660e01b815260040162000299919062000af3565b6000604051808303818588803b158015620002b357600080fd5b505af1158015620002c8573d6000803e3d6000fd5b50505050503373ffffffffffffffffffffffffffffffffffffffff167f0829c5c9dc5d14e41b11cfca0f01f76eba69b648ddcf9f84afba16ba8a76bf1c84346040516200031792919062000b21565b60405180910390a2505050565b60606000805480602002602001604051908101604052809291908181526020018280548015620003aa57602002820191906000526020600020905b8160009054906101000a900473ffffffffffffffffffffffffffffffffffffffff1673ffffffffffffffffffffffffffffffffffffffff16815260200190600101908083116200035f575b5050505050905090565b6000338686868686604051620003ca90620004b3565b620003db9695949392919062000bc6565b604051809103906000f080158015620003f8573d6000803e3d6000fd5b5090506000819080600181540180825580915050600190039060005260206000200160009091909190916101000a81548173ffffffffffffffffffffffffffffffffffffffff021916908373ffffffffffffffffffffffffffffffffffffffff1602179055507f73cc6512e7ecc537961f06c435b8c36be561c23851b3c990165a8cd7968dc6c681338888886000808a8a6000604051620004a39a9998979695949392919062000c84565b60405180910390a1505050505050565b612c648062000d4383390190565b6000604051905090565b600080fd5b600080fd5b600073ffffffffffffffffffffffffffffffffffffffff82169050919050565b60006200050282620004d5565b9050919050565b6200051481620004f5565b81146200052057600080fd5b50565b600081359050620005348162000509565b92915050565b600060208284031215620005535762000552620004cb565b5b6000620005638482850162000523565b91505092915050565b600081519050919050565b600082825260208201905092915050565b6000819050602082019050919050565b6000819050919050565b6000620005c3620005bd620005b784620004d5565b62000598565b620004d5565b9050919050565b6000620005d782620005a2565b9050919050565b6000620005eb82620005ca565b9050919050565b620005fd81620005de565b82525050565b6000620006118383620005f2565b60208301905092915050565b6000602082019050919050565b600062000637826200056c565b62000643818562000577565b9350620006508362000588565b8060005b83811015620006875781516200066b888262000603565b975062000678836200061d565b92505060018101905062000654565b5085935050505092915050565b60006020820190508181036000830152620006b081846200062a565b905092915050565b6000819050919050565b620006cd81620006b8565b8114620006d957600080fd5b50565b600081359050620006ed81620006c2565b92915050565b600080fd5b600080fd5b6000601f19601f8301169050919050565b7f4e487b7100000000000000000000000000000000000000000000000000000000600052604160045260246000fd5b6200074882620006fd565b810181811067ffffffffffffffff821117156200076a57620007696200070e565b5b80604052505050565b60006200077f620004c1565b90506200078d82826200073d565b919050565b600067ffffffffffffffff821115620007b057620007af6200070e565b5b620007bb82620006fd565b9050602081019050919050565b82818337600083830152505050565b6000620007ee620007e88462000792565b62000773565b9050828152602081018484840111156200080d576200080c620006f8565b5b6200081a848285620007c8565b509392505050565b600082601f8301126200083a5762000839620006f3565b5b81356200084c848260208601620007d7565b91505092915050565b600080600080600060a08688031215620008745762000873620004cb565b5b60006200088488828901620006dc565b95505060206200089788828901620006dc565b9450506040620008aa88828901620006dc565b935050606086013567ffffffffffffffff811115620008ce57620008cd620004d0565b5b620008dc8882890162000822565b925050608086013567ffffffffffffffff8111156200090057620008ff620004d0565b5b6200090e8882890162000822565b9150509295509295909350565b6000815190506200092c81620006c2565b92915050565b6000602082840312156200094b576200094a620004cb565b5b60006200095b848285016200091b565b91505092915050565b600381106200097257600080fd5b50565b600081519050620009868162000964565b92915050565b600060208284031215620009a557620009a4620004cb565b5b6000620009b58482850162000975565b91505092915050565b7f4e487b7100000000000000000000000000000000000000000000000000000000600052602160045260246000fd5b600082825260208201905092915050565b7f496e76616c696420737461746500000000000000000000000000000000000000600082015250565b600062000a36600d83620009ed565b915062000a4382620009fe565b602082019050919050565b6000602082019050818103600083015262000a698162000a27565b9050919050565b7f436f6e747269627574696f6e20616d6f756e7420697320746f6f206c6f772021600082015250565b600062000aa8602083620009ed565b915062000ab58262000a70565b602082019050919050565b6000602082019050818103600083015262000adb8162000a99565b9050919050565b62000aed81620004f5565b82525050565b600060208201905062000b0a600083018462000ae2565b92915050565b62000b1b81620006b8565b82525050565b600060408201905062000b38600083018562000ae2565b62000b47602083018462000b10565b9392505050565b600081519050919050565b60005b8381101562000b7957808201518184015260208101905062000b5c565b60008484015250505050565b600062000b928262000b4e565b62000b9e8185620009ed565b935062000bb081856020860162000b59565b62000bbb81620006fd565b840191505092915050565b600060c08201905062000bdd600083018962000ae2565b62000bec602083018862000b10565b62000bfb604083018762000b10565b62000c0a606083018662000b10565b818103608083015262000c1e818562000b85565b905081810360a083015262000c34818462000b85565b9050979650505050505050565b6000819050919050565b600062000c6c62000c6662000c608462000c41565b62000598565b620006b8565b9050919050565b62000c7e8162000c4b565b82525050565b60006101408201905062000c9c600083018d62000ae2565b62000cab602083018c62000ae2565b62000cba604083018b62000b10565b62000cc9606083018a62000b10565b62000cd8608083018962000b10565b62000ce760a083018862000c73565b62000cf660c083018762000c73565b81810360e083015262000d0a818662000b85565b905081810361010083015262000d21818562000b85565b905062000d3361012083018462000c73565b9b9a505050505050505050505056fe60806040526000600960006101000a81548160ff021916908360028111156200002d576200002c620000f7565b5b02179055506000600c553480156200004457600080fd5b5060405162002c6438038062002c6483398181016040528101906200006a919062000359565b856000806101000a81548173ffffffffffffffffffffffffffffffffffffffff021916908373ffffffffffffffffffffffffffffffffffffffff1602179055508460018190555083600281905550826003819055508160079081620000d0919062000674565b508060089081620000e2919062000674565b5060006005819055505050505050506200075b565b7f4e487b7100000000000000000000000000000000000000000000000000000000600052602160045260246000fd5b6000604051905090565b600080fd5b600080fd5b600073ffffffffffffffffffffffffffffffffffffffff82169050919050565b600062000167826200013a565b9050919050565b62000179816200015a565b81146200018557600080fd5b50565b60008151905062000199816200016e565b92915050565b6000819050919050565b620001b4816200019f565b8114620001c057600080fd5b50565b600081519050620001d481620001a9565b92915050565b600080fd5b600080fd5b6000601f19601f8301169050919050565b7f4e487b7100000000000000000000000000000000000000000000000000000000600052604160045260246000fd5b6200022f82620001e4565b810181811067ffffffffffffffff82111715620002515762000250620001f5565b5b80604052505050565b60006200026662000126565b905062000274828262000224565b919050565b600067ffffffffffffffff821115620002975762000296620001f5565b5b620002a282620001e4565b9050602081019050919050565b60005b83811015620002cf578082015181840152602081019050620002b2565b60008484015250505050565b6000620002f2620002ec8462000279565b6200025a565b905082815260208101848484011115620003115762000310620001df565b5b6200031e848285620002af565b509392505050565b600082601f8301126200033e576200033d620001da565b5b815162000350848260208601620002db565b91505092915050565b60008060008060008060c0878903121562000379576200037862000130565b5b60006200038989828a0162000188565b96505060206200039c89828a01620001c3565b9550506040620003af89828a01620001c3565b9450506060620003c289828a01620001c3565b935050608087015167ffffffffffffffff811115620003e657620003e562000135565b5b620003f489828a0162000326565b92505060a087015167ffffffffffffffff81111562000418576200041762000135565b5b6200042689828a0162000326565b9150509295509295509295565b600081519050919050565b7f4e487b7100000000000000000000000000000000000000000000000000000000600052602260045260246000fd5b600060028204905060018216806200048657607f821691505b6020821081036200049c576200049b6200043e565b5b50919050565b60008190508160005260206000209050919050565b60006020601f8301049050919050565b600082821b905092915050565b600060088302620005067fffffffffffffffffffffffffffffffffffffffffffffffffffffffffffffffff82620004c7565b620005128683620004c7565b95508019841693508086168417925050509392505050565b6000819050919050565b6000620005556200054f62000549846200019f565b6200052a565b6200019f565b9050919050565b6000819050919050565b620005718362000534565b6200058962000580826200055c565b848454620004d4565b825550505050565b600090565b620005a062000591565b620005ad81848462000566565b505050565b5b81811015620005d557620005c960008262000596565b600181019050620005b3565b5050565b601f8211156200062457620005ee81620004a2565b620005f984620004b7565b8101602085101562000609578190505b620006216200061885620004b7565b830182620005b2565b50505b505050565b600082821c905092915050565b6000620006496000198460080262000629565b1980831691505092915050565b600062000664838362000636565b9150826002028217905092915050565b6200067f8262000433565b67ffffffffffffffff8111156200069b576200069a620001f5565b5b620006a782546200046d565b620006b4828285620005d9565b600060209050601f831160018114620006ec5760008415620006d7578287015190505b620006e3858262000656565b86555062000753565b601f198416620006fc86620004a2565b60005b828110156200072657848901518255600182019150602085019450602081019050620006ff565b8683101562000746578489015162000742601f89168262000636565b8355505b6001600288020188555050505b505050505050565b6124f9806200076b6000396000f3fe60806040526004361061011f5760003560e01c8063937e09b1116100a0578063c19d93fb11610064578063c19d93fb146103bc578063c3e20c9f146103e7578063c59ee1dc14610412578063d5cef1331461043d578063ff3a9c7e146104685761011f565b8063937e09b1146102d1578063992a7dfb146102fc578063a46752ae1461033d578063b40141bf14610366578063b82c86d6146103915761011f565b80634c4cea5a116100e75780634c4cea5a1461020d5780634e695a37146102385780636f9fb98a1461026157806373e888fd1461028c578063752e19f9146102a85761011f565b806302d05d3f1461012457806303c29d581461014f5780630a7713701461017a57806324274ee9146101b757806329dcb0cf146101e2575b600080fd5b34801561013057600080fd5b5061013961049c565b60405161014691906114d4565b60405180910390f35b34801561015b57600080fd5b506101646104c0565b604051610171919061157f565b60405180910390f35b34801561018657600080fd5b506101a1600480360381019061019c91906115f3565b61054e565b6040516101ae9190611639565b60405180910390f35b3480156101c357600080fd5b506101cc610566565b6040516101d99190611639565b60405180910390f35b3480156101ee57600080fd5b506101f761056c565b6040516102049190611639565b60405180910390f35b34801561021957600080fd5b50610222610572565b60405161022f9190611639565b60405180910390f35b34801561024457600080fd5b5061025f600480360381019061025a9190611680565b610578565b005b34801561026d57600080fd5b5061027661075d565b6040516102839190611639565b60405180910390f35b6102a660048036038101906102a191906115f3565b610765565b005b3480156102b457600080fd5b506102cf60048036038101906102ca9190611680565b61097d565b005b3480156102dd57600080fd5b506102e6610c8c565b6040516102f39190611639565b60405180910390f35b34801561030857600080fd5b50610323600480360381019061031e9190611680565b610c92565b6040516103349594939291906116c8565b60405180910390f35b34801561034957600080fd5b50610364600480360381019061035f9190611883565b610d7d565b005b34801561037257600080fd5b5061037b610fc7565b6040516103889190611639565b60405180910390f35b34801561039d57600080fd5b506103a6610fcd565b6040516103b39190611639565b60405180910390f35b3480156103c857600080fd5b506103d1610fd3565b6040516103de9190611969565b60405180910390f35b3480156103f357600080fd5b506103fc610fe6565b604051610409919061157f565b60405180910390f35b34801561041e57600080fd5b50610427611074565b6040516104349190611639565b60405180910390f35b34801561044957600080fd5b5061045261107a565b60405161045f9190611984565b60405180910390f35b34801561047457600080fd5b5061047d611292565b6040516104939a9998979695949392919061199f565b60405180910390f35b60008054906101000a900473ffffffffffffffffffffffffffffffffffffffff1681565b600880546104cd90611a78565b80601f01602080910402602001604051908101604052809291908181526020018280546104f990611a78565b80156105465780601f1061051b57610100808354040283529160200191610546565b820191906000526020600020905b81548152906001019060200180831161052957829003601f168201915b505050505081565b600a6020528060005260406000206000915090505481565b60065481565b60025481565b60045481565b6000600a60003373ffffffffffffffffffffffffffffffffffffffff1673ffffffffffffffffffffffffffffffffffffffff16815260200190815260200160002054116105fa576040517f08c379a00000000000000000000000000000000000000000000000000000000081526004016105f190611af5565b60405180910390fd5b6000600b60008381526020019081526020016000209050600015158160030160003373ffffffffffffffffffffffffffffffffffffffff1673ffffffffffffffffffffffffffffffffffffffff16815260200190815260200160002060009054906101000a900460ff161515146106a6576040517f08c379a000000000000000000000000000000000000000000000000000000000815260040161069d90611b61565b60405180910390fd5b60018160030160003373ffffffffffffffffffffffffffffffffffffffff1673ffffffffffffffffffffffffffffffffffffffff16815260200190815260200160002060006101000a81548160ff02191690831515021790555060018160020160008282546107159190611bb0565b925050819055507fa2925e4595bf873fa82c22a1a89809777347023bf2b502d32710157a5eb8199c338260020154604051610751929190611bf3565b60405180910390a15050565b600047905090565b600080600281111561077a576107796118f2565b5b600960009054906101000a900460ff16600281111561079c5761079b6118f2565b5b146107dc576040517f08c379a00000000000000000000000000000000000000000000000000000000081526004016107d390611c68565b60405180910390fd5b6002544210610820576040517f08c379a000000000000000000000000000000000000000000000000000000000815260040161081790611cd4565b60405180910390fd5b600154341015610865576040517f08c379a000000000000000000000000000000000000000000000000000000000815260040161085c90611d40565b60405180910390fd5b6000600a60008473ffffffffffffffffffffffffffffffffffffffff1673ffffffffffffffffffffffffffffffffffffffff16815260200190815260200160002054036108c557600660008154809291906108bf90611d60565b91905055505b34600a60008473ffffffffffffffffffffffffffffffffffffffff1673ffffffffffffffffffffffffffffffffffffffff16815260200190815260200160002060008282546109149190611bb0565b92505081905550346005600082825461092d9190611bb0565b925050819055507f5cdc4ab8d637538ead6cc1904d4160343656c8c82bd266635cfd31ac008fffe0823460055460405161096993929190611da8565b60405180910390a1610979611418565b5050565b60008054906101000a900473ffffffffffffffffffffffffffffffffffffffff1673ffffffffffffffffffffffffffffffffffffffff163373ffffffffffffffffffffffffffffffffffffffff1614610a0b576040517f08c379a0000000000000000000000000000000000000000000000000000000008152600401610a0290611e51565b60405180910390fd5b6002806002811115610a2057610a1f6118f2565b5b600960009054906101000a900460ff166002811115610a4257610a416118f2565b5b14610a82576040517f08c379a0000000000000000000000000000000000000000000000000000000008152600401610a7990611c68565b60405180910390fd5b6002544210610ac6576040517f08c379a0000000000000000000000000000000000000000000000000000000008152600401610abd90611cd4565b60405180910390fd5b6000600b60008481526020019081526020016000209050600015158160040160009054906101000a900460ff16151514610b35576040517f08c379a0000000000000000000000000000000000000000000000000000000008152600401610b2c90611ebd565b60405180910390fd5b6002600654610b449190611f0c565b81600201541015610b8a576040517f08c379a0000000000000000000000000000000000000000000000000000000008152600401610b8190611faf565b60405180910390fd5b8060040160019054906101000a900473ffffffffffffffffffffffffffffffffffffffff1673ffffffffffffffffffffffffffffffffffffffff166108fc82600101549081150290604051600060405180830381858888f19350505050158015610bf8573d6000803e3d6000fd5b5060018160040160006101000a81548160ff0219169083151502179055507f2af8d60b878c5e8de57c8ff96e03c6cfab6de26b47e989757345cc1dceaac99883826000018360010154846002015460018660040160019054906101000a900473ffffffffffffffffffffffffffffffffffffffff16604051610c7f969594939291906120c7565b60405180910390a1505050565b60015481565b600b602052806000526040600020600091509050806000018054610cb590611a78565b80601f0160208091040260200160405190810160405280929190818152602001828054610ce190611a78565b8015610d2e5780601f10610d0357610100808354040283529160200191610d2e565b820191906000526020600020905b815481529060010190602001808311610d1157829003601f168201915b5050505050908060010154908060020154908060040160009054906101000a900460ff16908060040160019054906101000a900473ffffffffffffffffffffffffffffffffffffffff16905085565b60008054906101000a900473ffffffffffffffffffffffffffffffffffffffff1673ffffffffffffffffffffffffffffffffffffffff163373ffffffffffffffffffffffffffffffffffffffff1614610e0b576040517f08c379a0000000000000000000000000000000000000000000000000000000008152600401610e0290611e51565b60405180910390fd5b6002806002811115610e2057610e1f6118f2565b5b600960009054906101000a900460ff166002811115610e4257610e416118f2565b5b14610e82576040517f08c379a0000000000000000000000000000000000000000000000000000000008152600401610e7990611c68565b60405180910390fd5b6002544210610ec6576040517f08c379a0000000000000000000000000000000000000000000000000000000008152600401610ebd90611cd4565b60405180910390fd5b6000600b6000600c5481526020019081526020016000209050600c6000815480929190610ef290611d60565b919050555084816000019081610f0891906122bc565b508381600101819055506000816002018190555060008160040160006101000a81548160ff021916908315150217905550828160040160016101000a81548173ffffffffffffffffffffffffffffffffffffffff021916908373ffffffffffffffffffffffffffffffffffffffff1602179055507f9883a4e4f8698e4cc93bafb8d0d2376cb8c51dd322cb9fd80d02c691fcdea503600c54868660008088604051610fb8969594939291906123c9565b60405180910390a15050505050565b600c5481565b60035481565b600960009054906101000a900460ff1681565b60078054610ff390611a78565b80601f016020809104026020016040519081016040528092919081815260200182805461101f90611a78565b801561106c5780601f106110415761010080835404028352916020019161106c565b820191906000526020600020905b81548152906001019060200180831161104f57829003601f168201915b505050505081565b60055481565b60006001806002811115611091576110906118f2565b5b600960009054906101000a900460ff1660028111156110b3576110b26118f2565b5b146110f3576040517f08c379a00000000000000000000000000000000000000000000000000000000081526004016110ea90611c68565b60405180910390fd5b6002544210611137576040517f08c379a000000000000000000000000000000000000000000000000000000000815260040161112e90611cd4565b60405180910390fd5b6000600a60003373ffffffffffffffffffffffffffffffffffffffff1673ffffffffffffffffffffffffffffffffffffffff16815260200190815260200160002054116111b9576040517f08c379a00000000000000000000000000000000000000000000000000000000081526004016111b0906124a3565b60405180910390fd5b60003390508073ffffffffffffffffffffffffffffffffffffffff166108fc600a60003373ffffffffffffffffffffffffffffffffffffffff1673ffffffffffffffffffffffffffffffffffffffff168152602001908152602001600020549081150290604051600060405180830381858888f19350505050158015611243573d6000803e3d6000fd5b506000600a60003373ffffffffffffffffffffffffffffffffffffffff1673ffffffffffffffffffffffffffffffffffffffff1681526020019081526020016000208190555060019250505090565b60008060008060008060608060008060008054906101000a900473ffffffffffffffffffffffffffffffffffffffff16995060015498506002549750600354965060045495506005549450600780546112ea90611a78565b80601f016020809104026020016040519081016040528092919081815260200182805461131690611a78565b80156113635780601f1061133857610100808354040283529160200191611363565b820191906000526020600020905b81548152906001019060200180831161134657829003601f168201915b505050505093506008805461137790611a78565b80601f01602080910402602001604051908101604052809291908181526020018280546113a390611a78565b80156113f05780601f106113c5576101008083540402835291602001916113f0565b820191906000526020600020905b8154815290600101906020018083116113d357829003601f168201915b50505050509250600960009054906101000a900460ff16915047905090919293949596979899565b60035460055410611453576002600960006101000a81548160ff02191690836002811115611449576114486118f2565b5b021790555061148a565b600254421115611489576001600960006101000a81548160ff02191690836002811115611483576114826118f2565b5b02179055505b5b42600481905550565b600073ffffffffffffffffffffffffffffffffffffffff82169050919050565b60006114be82611493565b9050919050565b6114ce816114b3565b82525050565b60006020820190506114e960008301846114c5565b92915050565b600081519050919050565b600082825260208201905092915050565b60005b8381101561152957808201518184015260208101905061150e565b60008484015250505050565b6000601f19601f8301169050919050565b6000611551826114ef565b61155b81856114fa565b935061156b81856020860161150b565b61157481611535565b840191505092915050565b600060208201905081810360008301526115998184611546565b905092915050565b6000604051905090565b600080fd5b600080fd5b60006115c082611493565b9050919050565b6115d0816115b5565b81146115db57600080fd5b50565b6000813590506115ed816115c7565b92915050565b600060208284031215611609576116086115ab565b5b6000611617848285016115de565b91505092915050565b6000819050919050565b61163381611620565b82525050565b600060208201905061164e600083018461162a565b92915050565b61165d81611620565b811461166857600080fd5b50565b60008135905061167a81611654565b92915050565b600060208284031215611696576116956115ab565b5b60006116a48482850161166b565b91505092915050565b60008115159050919050565b6116c2816116ad565b82525050565b600060a08201905081810360008301526116e28188611546565b90506116f1602083018761162a565b6116fe604083018661162a565b61170b60608301856116b9565b61171860808301846114c5565b9695505050505050565b600080fd5b600080fd5b7f4e487b7100000000000000000000000000000000000000000000000000000000600052604160045260246000fd5b61176482611535565b810181811067ffffffffffffffff821117156117835761178261172c565b5b80604052505050565b60006117966115a1565b90506117a2828261175b565b919050565b600067ffffffffffffffff8211156117c2576117c161172c565b5b6117cb82611535565b9050602081019050919050565b82818337600083830152505050565b60006117fa6117f5846117a7565b61178c565b90508281526020810184848401111561181657611815611727565b5b6118218482856117d8565b509392505050565b600082601f83011261183e5761183d611722565b5b813561184e8482602086016117e7565b91505092915050565b611860816114b3565b811461186b57600080fd5b50565b60008135905061187d81611857565b92915050565b60008060006060848603121561189c5761189b6115ab565b5b600084013567ffffffffffffffff8111156118ba576118b96115b0565b5b6118c686828701611829565b93505060206118d78682870161166b565b92505060406118e88682870161186e565b9150509250925092565b7f4e487b7100000000000000000000000000000000000000000000000000000000600052602160045260246000fd5b60038110611932576119316118f2565b5b50565b600081905061194382611921565b919050565b600061195382611935565b9050919050565b61196381611948565b82525050565b600060208201905061197e600083018461195a565b92915050565b600060208201905061199960008301846116b9565b92915050565b6000610140820190506119b5600083018d6114c5565b6119c2602083018c61162a565b6119cf604083018b61162a565b6119dc606083018a61162a565b6119e9608083018961162a565b6119f660a083018861162a565b81810360c0830152611a088187611546565b905081810360e0830152611a1c8186611546565b9050611a2c61010083018561195a565b611a3a61012083018461162a565b9b9a5050505050505050505050565b7f4e487b7100000000000000000000000000000000000000000000000000000000600052602260045260246000fd5b60006002820490506001821680611a9057607f821691505b602082108103611aa357611aa2611a49565b5b50919050565b7f4f6e6c7920636f6e7472696275746f722063616e20766f746520210000000000600082015250565b6000611adf601b836114fa565b9150611aea82611aa9565b602082019050919050565b60006020820190508181036000830152611b0e81611ad2565b9050919050565b7f596f7520616c726561647920766f746564202100000000000000000000000000600082015250565b6000611b4b6013836114fa565b9150611b5682611b15565b602082019050919050565b60006020820190508181036000830152611b7a81611b3e565b9050919050565b7f4e487b7100000000000000000000000000000000000000000000000000000000600052601160045260246000fd5b6000611bbb82611620565b9150611bc683611620565b9250828201905080821115611bde57611bdd611b81565b5b92915050565b611bed816115b5565b82525050565b6000604082019050611c086000830185611be4565b611c15602083018461162a565b9392505050565b7f496e76616c696420737461746500000000000000000000000000000000000000600082015250565b6000611c52600d836114fa565b9150611c5d82611c1c565b602082019050919050565b60006020820190508181036000830152611c8181611c45565b9050919050565b7f446561646c696e65206861732070617373656420210000000000000000000000600082015250565b6000611cbe6015836114fa565b9150611cc982611c88565b602082019050919050565b60006020820190508181036000830152611ced81611cb1565b9050919050565b7f436f6e747269627574696f6e20616d6f756e7420697320746f6f206c6f772021600082015250565b6000611d2a6020836114fa565b9150611d3582611cf4565b602082019050919050565b60006020820190508181036000830152611d5981611d1d565b9050919050565b6000611d6b82611620565b91507fffffffffffffffffffffffffffffffffffffffffffffffffffffffffffffffff8203611d9d57611d9c611b81565b5b600182019050919050565b6000606082019050611dbd6000830186611be4565b611dca602083018561162a565b611dd7604083018461162a565b949350505050565b7f596f7520646f6e7420686176652061636365737320746f20706572666f726d2060008201527f74686973206f7065726174696f6e202100000000000000000000000000000000602082015250565b6000611e3b6030836114fa565b9150611e4682611ddf565b604082019050919050565b60006020820190508181036000830152611e6a81611e2e565b9050919050565b7f5265717565737420616c726561647920636f6d706c6574656400000000000000600082015250565b6000611ea76019836114fa565b9150611eb282611e71565b602082019050919050565b60006020820190508181036000830152611ed681611e9a565b9050919050565b7f4e487b7100000000000000000000000000000000000000000000000000000000600052601260045260246000fd5b6000611f1782611620565b9150611f2283611620565b925082611f3257611f31611edd565b5b828204905092915050565b7f4174206c656173742035302520636f6e7472696275746f72206e65656420746f60008201527f20766f746520666f722074686973207265717565737400000000000000000000602082015250565b6000611f996036836114fa565b9150611fa482611f3d565b604082019050919050565b60006020820190508181036000830152611fc881611f8c565b9050919050565b60008190508160005260206000209050919050565b60008154611ff181611a78565b611ffb81866114fa565b94506001821660008114612016576001811461202c5761205f565b60ff19831686528115156020028601935061205f565b61203585611fcf565b60005b8381101561205757815481890152600182019150602081019050612038565b808801955050505b50505092915050565b6000819050919050565b600061208d61208861208384611493565b612068565b611493565b9050919050565b600061209f82612072565b9050919050565b60006120b182612094565b9050919050565b6120c1816120a6565b82525050565b600060c0820190506120dc600083018961162a565b81810360208301526120ee8188611fe4565b90506120fd604083018761162a565b61210a606083018661162a565b61211760808301856116b9565b61212460a08301846120b8565b979650505050505050565b60006020601f8301049050919050565b600082821b905092915050565b60006008830261217c7fffffffffffffffffffffffffffffffffffffffffffffffffffffffffffffffff8261213f565b612186868361213f565b95508019841693508086168417925050509392505050565b60006121b96121b46121af84611620565b612068565b611620565b9050919050565b6000819050919050565b6121d38361219e565b6121e76121df826121c0565b84845461214c565b825550505050565b600090565b6121fc6121ef565b6122078184846121ca565b505050565b5b8181101561222b576122206000826121f4565b60018101905061220d565b5050565b601f8211156122705761224181611fcf565b61224a8461212f565b81016020851015612259578190505b61226d6122658561212f565b83018261220c565b50505b505050565b600082821c905092915050565b600061229360001984600802612275565b1980831691505092915050565b60006122ac8383612282565b9150826002028217905092915050565b6122c5826114ef565b67ffffffffffffffff8111156122de576122dd61172c565b5b6122e88254611a78565b6122f382828561222f565b600060209050601f8311600181146123265760008415612314578287015190505b61231e85826122a0565b865550612386565b601f19841661233486611fcf565b60005b8281101561235c57848901518255600182019150602085019450602081019050612337565b868310156123795784890151612375601f891682612282565b8355505b6001600288020188555050505b505050505050565b6000819050919050565b60006123b36123ae6123a98461238e565b612068565b611620565b9050919050565b6123c381612398565b82525050565b600060c0820190506123de600083018961162a565b81810360208301526123f08188611546565b90506123ff604083018761162a565b61240c60608301866123ba565b61241960808301856116b9565b61242660a08301846120b8565b979650505050505050565b7f596f7520646f6e74206861766520616e7920636f6e747269627574656420616d60008201527f6f756e7420210000000000000000000000000000000000000000000000000000602082015250565b600061248d6026836114fa565b915061249882612431565b604082019050919050565b600060208201905081810360008301526124bc81612480565b905091905056fea264697066735822122041e4e5f431c769213a501e04933d310a07bb2b4c6829880a221198157566e07964736f6c63430008130033a2646970667358221220358f439f50e116e3e1e483b6ad98bf5d3ae781825d68f7d7ac03ddba1078db5c64736f6c63430008130033",
  "immutableReferences": {},
  "source": "//SPDX-License-Identifier: Unlicense\r\npragma solidity ^0.8.0;\r\n\r\nimport './Project.sol';\r\n\r\ncontract Crowdfunding{\r\n\r\n// [X] Anyone can start a funding project .\r\n// [X] Get All project list\r\n// [X]  contribute amount\r\n\r\nevent ProjectStarted(\r\n    address projectContractAddress ,\r\n    address creator,\r\n    uint256 minContribution,\r\n    uint256 projectDeadline,\r\n    uint256 goalAmount,\r\n    uint256 currentAmount,\r\n    uint256 noOfContributors,\r\n    string title,\r\n    string desc,\r\n    uint256 currentState\r\n);\r\n\r\nevent ContributionReceived(\r\n   address projectAddress,\r\n   uint256 contributedAmount,\r\n   address indexed contributor\r\n);\r\n\r\n Project[] private projects;\r\n\r\n  // @dev Anyone can start a fund rising\r\n // @return null\r\n\r\n function createProject(\r\n    uint256 minimumContribution,\r\n    uint256 deadline,\r\n    uint256 targetContribution,\r\n    string memory projectTitle,\r\n    string memory projectDesc\r\n ) public {\r\n\r\n   deadline = deadline;\r\n\r\n   Project newProject = new Project(msg.sender,minimumContribution,deadline,targetContribution,projectTitle,projectDesc);\r\n   projects.push(newProject);\r\n \r\n emit ProjectStarted(\r\n    address(newProject) ,\r\n    msg.sender,\r\n    minimumContribution,\r\n    deadline,\r\n    targetContribution,\r\n    0,\r\n    0,\r\n    projectTitle,\r\n    projectDesc,\r\n    0\r\n );\r\n\r\n }\r\n\r\n // @dev Get projects list\r\n// @return array\r\n\r\nfunction returnAllProjects() external view returns(Project[] memory){\r\n   return projects;\r\n}\r\n\r\n// @dev User can contribute\r\n// @return null\r\n\r\nfunction contribute(address _projectAddress) public payable{\r\n\r\n   uint256 minContributionAmount = Project(_projectAddress).minimumContribution();\r\n   Project.State projectState = Project(_projectAddress).state();\r\n   require(projectState == Project.State.Fundraising,'Invalid state');\r\n   require(msg.value >= minContributionAmount,'Contribution amount is too low !');\r\n   // Call function\r\n   Project(_projectAddress).contribute{value:msg.value}(msg.sender);\r\n   // Trigger event \r\n   emit ContributionReceived(_projectAddress,msg.value,msg.sender);\r\n}\r\n\r\n}\r\n\r\n",
  "sourcePath": "D:\\CrowdFunding\\Crowdfunding-DAPP\\contracts\\Crowdfunding.sol",
  "compiler": {
    "name": "solc",
    "version": "0.8.19+commit.7dd6d404.Emscripten.clang"
  },
  "schemaVersion": "3.4.13",
  "updatedAt": "2023-05-18T08:08:56.334Z",
  "networkType": "ethereum",
  "devdoc": {
    "kind": "dev",
    "methods": {},
    "version": 1
  },
  "userdoc": {
    "kind": "user",
    "methods": {},
    "version": 1
  }
}